:020000041004E6
:1000000000600020790B0410990A0410A30A041060
:10001000AA5555AA000000000000000000000000E2
:10002000000000000000000000000000AD0A041005
:100030000000000000000000B30A0410BF0A041012
:10004000C50A0410E30A04100000000000000000CC
:10005000DD0A0410D70A0410CB0A0410D10A0410D8
:100060000000000000000000000000000000000090
:1000700000000000E90A0410EF0A0410F50A041059
:1000800000000000FB0A0410010B0410070B041011
:100090000D0B0410130B0410190B04101F0B04108C
:1000A00010B503680124A3430360C1604260016886
:1000B00001220A43026010BD08206D4908806D4886
:1000C0006D4908608020C0056C49C1626C490163BC
:1000D000C1686C4A0A40C260416880220A4342609B
:1000E000016880229143016067480168674A0A40BD
:1000F000872111430160416806220A434260644837
:100100004169644A1140644B0B4343616349C161D7
:1001100003681A40624B1343036081600168012247
:100120000A4302605F48017805220A430270704763
:100130001CB508204E4908805B490191410301AB81
:100140009BB20B43594A136014680C40FCD1584CC5
:100150000194136013680B40FCD15B1C554C009458
:100160006C46A4B20C43146014680C40FCD1009C93
:10017000240C052C02D0DCB2642CEEDB4E493E4A46
:1001800011604E494A6A4E4B13404E4A1A434A6226
:100190000A684D4B13400B604C4908812C200873B2
:1001A000087C602202430A740878702202430A70B5
:1001B000087EC72202400A764869012202434A614A
:1001C00043480168334A0A404249114301604249A9
:1001D00081604248017802220A43027013BDFFB5D4
:1001E00004000D0010003E4909683E4A914239D191
:1001F00001008207920F01D0091D891A3A4A002393
:10020000D36000266B460394019500E0361D8E42B4
:100210002AD20024019D3719874201D2EF5D00E008
:10022000FF271F55641C042CF5DB01953F24146146
:10023000039CA519AC03240C94611F785C782402FC
:100240003C439F783F042743DC7824063C431464F6
:10025000332717601769FF07FCD52D680295029DAB
:10026000A542D3D0012000E0002004B0F0BD000082
:100270000400104073C001002000904004440000BE
:100280001041000072F7FFFF0000404020009FFF78
:10029000580000A00F80FFFF9010000008004040B1
:1002A000A020000024004040023A44000C00004816
:1002B00002341B00824300006BC001000C000040B0
:1002C000F00FFFFF01100000FFF6FFFF1C003040A1
:1002D0001C0000A09020000000003040480030408A
:1002E00014000020CCBCECFC00001040F2B5FFB0C4
:1002F00095B000216A4611701172117351815173CA
:1003000007910F9101215172049194A909780D91DF
:1003100092490D9A895C0C9152A90C9A8918019105
:100320000421019A1170FF21019A51700321019A51
:1003300091700121019AD1700021019A11710199E6
:100340004871062005900120694608728448854955
:1003500041180B9184494018069052A80A9010A8A1
:1003600009909DE2072072E294A80078002803D14A
:100370000898008B9028FBD1BFF34F8FBC48BD4934
:100380000860BFF34F8FFEE7D1680179C907FBD53D
:1003900011460A78FD2313400B70FF21016043E0F2
:1003A0004A0713681B053CD56B465B7A002B38D196
:1003B00001236C466372049B042B32DB1368802498
:1003C000A3431360BF4A526884225200BD4B5B684E
:1003D0009BB2D21A062A0CDB10AA13780A2B03D17F
:1003E00001226B461A7004E00B2B02D100226B46EF
:1003F0001A72012204926A46127A002A52D0049A92
:10040000012A4FD152AA0823137001235370059B70
:100410009370059B1B12D370AB4A1378194311706C
:1004200029E0049A032AE6D104A8A8490A680260D0
:10043000842252000999A348FFF732FE042204A93E
:10044000A348FFF72DFE8020C005016880220A43E3
:100450000260842040009B49496889B2401A042800
:10046000F7DD8020C00501688022914301600720EC
:1004700004901FE0D1680179C907FBD511460A78BD
:10048000FD2313400B70FF21016084225200099963
:100490008C48FFF705FE059A121D0A998C48FFF754
:1004A000FFFDD0E70498052804D1D2E76B465A73C4
:1004B0000F910E9068460078012802D16846007BB3
:1004C000002800D0C7E110A882490D9A895C441821
:1004D00052AE0420019A10700E21019A51700199B8
:1004E000887001200199C87020780199087160789E
:1004F00001994871002001998871012069460872AC
:100500006078FC2800D08BE1A07804280FDBE0782D
:10051000009021790902014300910846617909049C
:10052000014300910846A179090601430091207812
:1005300021380928E6D802A14000095A8F4400BF9B
:100540001400D200DA00EE000601380198013A02E8
:1005500072021C010120694608736DE1920B0410C0
:1005600000200000140004100000041094A800787B
:1005700000289FD16846427B0F990E9800E0012227
:10058000089B9B8FDB0691D5089B1B88DBB2140070
:1005900002D100246E4674816C466489661C6F46E5
:1005A0007E8110AF3B55140005D1012BE7D0FF2B06
:1005B000E6D10322E4E7012A01D10222E0E7022A80
:1005C00001D10622DCE7032A01D10422D8E7042A5C
:1005D00002D118000522D3E7052A06D119024018D6
:1005E00080B20021002806D10EE0062A05D11800AD
:1005F0000021002808D00B22C2E70B2AC0D1491CD9
:100600008BB284B2A342BBD3002201236C46237079
:10061000B6E701988570062026E0062001998870CB
:1006200040200199C87100200199087204E100205E
:100630000090042269460B98FFF7D1FD00283ED0B8
:100640004A20B072F8E0AC480090042269460B984A
:10065000FFF7C5FD002832D04A20EBE001988570F5
:10066000A64800680006000F0199C871E4E000BFC9
:100670000400FA050CED00E0FC2001998871009857
:1006800006998842F2D38005F0D1009908009C4A6F
:1006900012689C4B9A42E9D13F229B4B1A61890315
:1006A000090C9961112119601969C907FCD5590D07
:1006B0000023DB4302689A42D8D1001D491E58D05E
:1006C000F8E700BF580000A0800040408C0B0410E9
:1006D0006C0000A0900B0410FB2001998871009819
:1006E00006998842C2D3E079217A0E020643032795
:1006F0000098032505400ED0401B0090761900207D
:1007000007E000990918097822000932431BD154E7
:10071000401CA842F5DB3740032086430ED0320050
:1007200020000930694241180098FFF758FD002861
:100730009CD101998871009880190090002F7BD07E
:100740000020874206D221000931721B1218009B3B
:100750001B788B54401C0428F3DB089504222846A0
:1007600041426018811909310098FFF738FD0028CF
:1007700001D100205EE0FB205CE0009806998842F1
:1007800015D3E179207A000208430021F31D08E027
:10079000009A12780C9C64181A55009A521C009208
:1007A000491C8142F4D3001D01998870E1E7FA20C9
:1007B00040E0FA2001998871082001998870FF2093
:1007C000019AD071019A1072019A5072019988723F
:1007D0000098069988422FD3002001998871E0790A
:1007E000C10200230022494D0CE0009880180068E7
:1007F0005840030020205C00DB0F6B436340401E29
:10080000F9D1121D8A42F0D30199CB71180A0199CE
:100810000872180C01994872180E019988720BE041
:100820000F200199487001200199087120780199E1
:1008300048716078019988716846007A012807D16B
:1008400001988078042800DC8CE5C01C80B20590FB
:1008500000206946087094A80078002820D16846D6
:10086000007A00280CD00798002809D101200790B1
:10087000059A0A992648FFF713FC0020694608727A
:100880002020A02109060968014009D0A0210906FD
:100890004860002007901E480168012291430160D2
:1008A0001C4808906846007A002807D16846007BFB
:1008B000002803D00798002800D155E5052594A805
:1008C0000078012800D051E6134802214A07126837
:1008D000120500D564E56A46527A002A00D15FE528
:1008E00000226B465A72049A012A00D099E50B4AFD
:1008F00013781943117048E545554C421C0090404F
:1009000014000020CCBCECFC00001040B71DC1045A
:100910001C0000A000003040080040408000404023
:1009200010B50F22474B1C682409144004701B6843
:100930001A400A700178002901D10121017010BD0F
:10094000F8B584B002A800BF49A10CC90CC03E484C
:100950003E4944180194091D45183D480078002877
:100960000BD13C480088052807DD280000F088F8F6
:10097000216881F308888047FEE700A9891C00A848
:10098000401CFFF7CDFF6846407800016946897832
:100990000143122904DB02A8417904220A4342716F
:1009A0002D488021490202AA92B20A4302600268DD
:1009B0000A40FCD129482A4908600120694608708C
:1009C00080070978032906D101688904CA0F01212B
:1009D00051406A46117000BF27A1224A224B1E686F
:1009E000224FBE420DD11A60684600788000085838
:1009F0008047684601780220FFF778FC002005B0A8
:100A0000F0BD6369934208D06846007880000858BA
:100A10008047684601780320EEE70068000708D5A4
:100A200068460078800008588047684601780420AE
:100A3000E2E7280000F024F80199096881F30888AA
:100A40008047FEE71C0090400020000000000410DA
:100A500008009040080010480C000048CCBCECFC9A
:100A60001400002045554C423000002001010101D6
:100A7000023B4802350B000031010410B90004109C
:100A8000C3788278417800781B021A430902120465
:100A900008431043704700002248FFF7F1FF8047EA
:100AA000FEE72148FFF7ECFF8047FEE780B51F48CF
:100AB00001E080B51E48FFF7E3FF804701BD80B528
:100AC0001C48F8E780B51C48F5E780B51B48F2E7FD
:100AD00080B51B48EFE780B51A48ECE780B51A48A7
:100AE000E9E780B51948E6E780B51948E3E780B53E
:100AF0001848E0E780B51848DDE780B51748DAE721
:100B000080B51748D7E780B51648D4E780B51648B2
:100B1000D1E780B51548CEE780B51548CBE780B55D
:100B20001448C8E7082004100C2004102C200410DE
:100B3000382004103C2004104020041058200410D9
:100B40005C20041054200410502004104420041091
:100B500074200410782004107C20041084200410D9
:100B6000882004108C20041090200410942004107D
:100B7000982004109C20041080B5002002490860D1
:100B800072B6FFF7DDFE01BD140000200801000071
:100B900001060004FFFFFFFFFFFFFFFFFFFFFFFF56
:100BA000FFFFFFFFFFFFFFFFFFFFFFFFFFFFFFFF55
:100BB000FFFFFFFFFFFFFFFFFFFFFFFFFFFFFFFF45
:100BC000FFFFFFFFFFFFFFFFFFFFFFFFFFFFFFFF35
:100BD000FFFFFFFFFFFFFFFFFFFFFFFFFFFFFFFF25
:1020000000600020BF2C0610AF170610BB1706108B
:10201000AA5555AA45554C4200000000000000009A
:10202000000000000000000000000000C7170610BC
:1020300000000000000000008F5E0410C9170610A9
:10204000D51706108B60041000000000000000008F
:10205000DD1706100F6104101F1806109F7D041075
:102060000000000000000000000000000000000070
:1020700000000000F37D0410137E0410677F04103D
:1020800000000000CB660410E36A0410376D0410F2
:102090006B6F04102F7204105F8604100D18061069
:1020A0000000000000000000000000000000000030
:1020B0000000000000000000000000000000000020
:1020C00010B5062B01DC002010BD14004278817889
:1020D0000906090C0A43C178100003F066FEE0709F
:1020E000042020700F216170A07001212171062150
:1020F000617100F060FD10B5062B01DC002010BD01
:102100001400417882781206120C1143080003F083
:102110005DFEE070042020700F216170A07001212D
:1021200021711D21617100F046FD10B5062B01DC07
:10213000002010BD1400401C03F080FEA07104209C
:1021400020700E216170A0700120E07010E010B5C9
:102150001400062B01DC002010BD03F083FEA071EB
:10216000042020700E216170A0700120E070032017
:1021700020710C206071072010BD38B500216C461D
:102180002170092B01DC002032BD140005006878A5
:10219000A9780906090C08436A46E97803F067FE46
:1021A000A0716878A9780906090C0843E071000A53
:1021B0002072684600786072042020700E206070E3
:1021C0000720A0700120E0702D2020710C2060718C
:1021D0000A2032BD10B586B000206C4669466060AA
:1021E00088600F2B44DB140002A8009002AB9B1CFC
:1021F00001AA01A9891C01A8401C03F049FEA07195
:1022000003A803F057FE03A86946C9880907090F08
:10221000427812030A4381780902F0231B010B4024
:10222000134300780001F021014019436846C18042
:102230004079E0716846C0882072000A6072684682
:102240000079A07268464089E072000A20736846EF
:1022500000896073000AA073042020700E20607053
:102260000C20A0700120E0702071102060710F2000
:1022700006B010BD10B590B0472B01DA002016E073
:102280001400684603F085FEA07140226946E01DF7
:1022900003F0C6FE042020700E2060704420A07061
:1022A0000120E0700220207110206071472010B0E2
:1022B00010BD1CB50F2B01DA002016BD14006846B6
:1022C00003F0C2FEA07108226946E01D03F0A8FEDB
:1022D000042020700E2060700C20A0700120E0709F
:1022E00003202071102012E31CB50D2B01DA002011
:1022F00016BD1400684603F0B1FEA07106226946BF
:10230000E01D03F08DFE042020700E2060700A2076
:10231000A0700120E07009202071102000F0FBFC6B
:1023200038B500216C462170092B01DC002032BD3C
:10233000140005006878A9780906090C0843694665
:1023400003F098FEA0716878A9780906090C084383
:10235000E071000A207268460078607204202070E4
:102360000E2060700720A0700120E0700520207111
:10237000142060710A2032BD10B5062B01DC00204C
:1023800010BD1400401C03F081FEA07104202070D9
:102390000E216170A0700120E07020712020E9E61C
:1023A0001CB50020694648800870092B1ADD14000E
:1023B00000A8801C03F08AFEA07168464088E07186
:1023C000000A2072684600786072042020700E2097
:1023D00060700720A0700120E07002202071202092
:1023E00060710A2016BD1CB50F2B01DA002016BD46
:1023F0001400684603F086FEA07108226946E01DBD
:1024000003F00EFE042020700E2060700C20A070DF
:102410000120E070032078E210B5062B01DC0020DB
:1024200010BD1400401C03F073FEA0710420207046
:102430000E216170A0700120E07005202071202025
:1024400098E638B584B0062B01DC002025E01400A6
:10245000C17802791206120C11434578827812066F
:10246000120C1543C27B0392827B02920200083257
:102470000192C279009283794279280003F074FEB8
:10248000A071042020700E216170A0700120E07006
:102490000620207120206071072005B030BD1CB5DA
:1024A0001400002069460870072B13DD684603F00E
:1024B000A7FEA07168460078E071042020700E200D
:1024C00060700520A0700120E0700720207120209E
:1024D0006071082016BD10B5062B01DC002010BD70
:1024E0001400811C407803F08FFEA071042020703E
:1024F0000E216170A0700120E07008202071202062
:1025000038E610B5062B01DC002010BD1400811C3C
:10251000407803F084FEA071042020700E216170C9
:10252000A0700120E07009202071202022E610B563
:10253000062B01DC002010BD1400407803F07AFE69
:10254000A071042020700E216170A0700120E07045
:102550000A20207120200DE61CB5062B01DC00208E
:1025600016BD1400027941790906090C0A438178E5
:10257000C3781B061B0C1943C379009383794078F9
:1025800003F0A6FFA071042020700E216170A070DE
:102590000120E0700B202071202001F05FFC10B5BD
:1025A000062B01DC002010BD14008178407803F078
:1025B00096FFA071042020700E216170A070012090
:1025C000E0700C2020712020D4E5F8B58AB0062BED
:1025D00001DC002050E0140001000A7E487E000665
:1025E000000C0243684682848A7DC87D0006000C88
:1025F00002430B7D487D0006000C03438D7CC87CA4
:102600000006000C05430E7C487C0006000C0643C7
:10261000887BCF7B3F063F0C38436F467884C87871
:102620000F793F063F0C38436F46388448788F78DF
:102630003F063F0C38436F46BF8C079706920593C1
:10264000049503966A46528C02924A7B0192CA1DF7
:1026500000928B794A796946098C03F00AFFE07091
:10266000042020700F216170A070012020710D20C6
:1026700060712020A07107200BB0F0BD10B5062BB3
:1026800001DC002010BD140003F010FFA071042035
:1026900020700E216170A0700120E0702171202057
:1026A00068E51CB51400002069460870072B13DD8F
:1026B000684603F0D0FFA07168460078E0710420FE
:1026C00020700E2060700520A0700120E0700F20A7
:1026D000207120206071082016BD10B51400062B53
:1026E00001DC002010BD03F0BDFFA07104202070AC
:1026F0000E216170A0700120E07010202071202058
:1027000038E510B5062B01DC002010BD1400811C3B
:10271000407803F0ABFFA071042020700E2161709F
:10272000A0700120E07011202071202022E510B55A
:10273000062B01DC002010BD1400811C407803F042
:10274000AEFFA071042020700E216170A0700120E6
:10275000E0701220207120200CE5F8B584B0062B23
:1027600001DC00203DE01400427B817B0906090C5E
:102770000A43C57A017B0906090C0D43467A817A22
:102780000906090C0E43C379017A0906090C0B43AB
:10279000417987793F063F0C39436F46F981C1780B
:1027A00007793F063F0C39436F46B98141788778F6
:1027B0003F063F0C39430800029201950096694696
:1027C000CA89898903F076FEE070042020700F2109
:1027D0006170A07001202071132060712020A07111
:1027E000072005B0F0BD10B5062B01DC002010BDA0
:1027F0001400401C03F07BFEA071042020700E2109
:102800006170A0700120E070142020712020B1E4DC
:102810003EB50E2B01DA00203EBD1400050068789D
:10282000A9780906090C0843694603F04AFFA0711C
:102830006878A9780906090C0843E071000A20723B
:10284000052269462000093003F0EAFB04202070CD
:102850000E2060700B20A0700120E0701520207108
:10286000202060710E203EBD10B5062B01DC00203B
:1028700010BD1400417882781206120C1143080032
:1028800003F024FFE070042020700F216170A0701D
:102890000120207116208CE11FB5172B01DA0020D2
:1028A00019E014006A4601001131401C03F01AFFC0
:1028B000A07110226946E01D03F0B2FB04202070D5
:1028C0000E2060701420A0700120E070172020718D
:1028D00020206071172004B010BD1CB50F2B01DA49
:1028E000002016BD1400684603F001FFA071082205
:1028F0006946E01D03F094FB042020700E206070F8
:102900000C20A0700120E070182020712020607140
:102910000F2016BD38B5062B01DC002032BD140097
:10292000C27A017B0906090C0A43457881780906B9
:10293000090C0D4303000D33C11C280003F0D3FD27
:10294000E070042020700F216170A07001202071C0
:1029500019206071202000F018FF38B5092B01DA2A
:10296000002032BD140005006878A9780906090C1A
:102970000843E91C03F0BFFEA0716878A978090636
:10298000090C0843E071000A2072042020700E2018
:1029900060700620A0700120E0701A201FE038B59A
:1029A000092B01DA002032BD140005006878A978EF
:1029B0000906090C084303F0A5FEA0716878A97800
:1029C0000906090C0843E071000A207204202070F7
:1029D0000E2060700620A0700120E0701B20207186
:1029E00020206071092032BD1CB50F2B01DA0020B8
:1029F00016BD1400684603F08CFEA07108226946DB
:102A0000E01D03F00DFB042020700E2060700C20F0
:102A1000A0700120E0701C2077E710B5062B01DCC8
:102A2000002010BD1400407803F078FEA07104204F
:102A300020700E216170A0700120E0701D202071B7
:102A40002020FFF797FB10B5062B01DC002010BDFE
:102A50001400C2788178407803F076FEA0710420DB
:102A600020700E216170A0700120E0701E20207186
:102A70002020FFF77FFB1CB514000020694608806A
:102A8000092B15DB684603F085FEA07168460088B7
:102A9000E071000A2072042020700E206070062071
:102AA000A0700120E0701F2020712020607109209B
:102AB00016BD38B5092B01DA002032BD140005001F
:102AC0006A79A8790006000C0243E97828790006A3
:102AD000000C01436878AB781B061B0C184303F00D
:102AE00036FDA0716878A9780906090C0843E071E1
:102AF000000A2072042020700E2060700620A07052
:102B00000120E07022206AE71CB5002069460860B9
:102B10000B2B1CDB140000A8801C03F01CFDA07113
:102B200068464088E071000A20726846008860723A
:102B3000000AA072042020700E2060700820A0708F
:102B40000120E07023202071202060710B2016BD31
:102B500010B5062B01DC002010BD1400C1780279ED
:102B60001206120C1143427883781B061B0C1A4381
:102B7000100003F0F4FCA071042020700E2161709D
:102B8000A0700120E070242020712020FFF7F2FACD
:102B900010B51400062B01DC002010BD03F003FD6E
:102BA000E070042020700F216170A070012020715E
:102BB000252060712020A071072010BD10B5062BC4
:102BC00001DC002010BD1400401C03F0F0FCE0709C
:102BD000042020700F216170A07001202071262038
:102BE000E7E710B5062B01DC002010BD1400030040
:102BF000183302000832811C407803F043FBA071B7
:102C0000042020700E216170A0700120E070272048
:102C100020712020FFF7AEFA10B5062B01DC002052
:102C200010BD1400811C407803F028FBA071042023
:102C300020700E216170A0700120E07028202071AA
:102C40002020FFF797FA10B51400062B01DC0020B6
:102C500010BD03F02FFBA071042020700E216170C5
:102C6000A0700120E070292020712020FFF782FA57
:102C70001CB51400002069460870072B13DD684658
:102C800003F014FBA07168460078E0710420207006
:102C90000E2060700520A0700120E0702A202071B5
:102CA00020206071082016BD1CB50D2B01DA002014
:102CB00016BD14006A46811C407803F0EFFAA0713B
:102CC00006226946E01D03F0ABF9042020700E20B7
:102CD00060700A20A0700120E0702B2019E01CB564
:102CE0000D2B01DA002016BD14006A46811C4078C5
:102CF00003F0D8FAA07106226946E01D03F090F9AE
:102D0000042020700E2060700A20A0700120E07066
:102D10002C202071202060710D2016BD10B5062BCF
:102D200001DC002010BD1400407803F0B3FAA0715C
:102D3000042020700E216170A0700120E0702D2011
:102D400020712020FFF716FA10B5062B01DC0020B9
:102D500010BD1400417882781206120C114308004D
:102D600003F094FAA071042020700E216170A0700D
:102D70000120E0702E2020712020FFF7FBF91CB508
:102D800000206946486008600F2B2ADB14006B4660
:102D900000AA921C01A901A8801C03F0E4FBA07109
:102DA0006846C088E071000A2072684680886072B8
:102DB000000AA07268464088E072000A20736846E4
:102DC00000886073000AA073042020700E206070D9
:102DD0000C20A0700120E0702F2020712020607155
:102DE0000F2016BD10B5062B01DC002010BD14000D
:102DF000027A811C407803F061FAA07104202070EF
:102E00000E216170A0700120E0704E202071202002
:102E1000FFF7B0F938B5002568460580092B01DABF
:102E2000002032BD140003F0C7FCA0716846008882
:102E3000E071000A2072042020700E2060700620CD
:102E4000A0700120E0702571FC20CAE518B58BB098
:102E5000002008AC2060694608856C46E061486245
:102E6000152B50DB140009A80690801C059007A8BC
:102E70000490401C039007A8801C029007A8C01C67
:102E800001900AA8009008AB08AA521C08A9891C46
:102E900008A8C01C03F09EFCA07108A8C01C007804
:102EA000E07108A8801C0078207208A8401C0078F7
:102EB000607208A80078A0726846008DE072000A6F
:102EC00020736846C07F60736846807FA073684641
:102ED000407FE0736846007F20746846C08C607451
:102EE000000AA0746846808CE074000A20750420F3
:102EF00020700E2060701220A0700120E070207100
:102F0000FC20607115200CB010BD10B5062B01DC43
:102F1000002010BD1400C21C8178407803F0ECFC46
:102F2000A071042020700E216170A0700120E0705B
:102F30000C202071FC20FFF71DF950B5C1B01E0018
:102F400000216B461970072E0FDB140001AA694699
:102F5000407803F0D5FCA071072E06DD68460078A6
:102F6000E07102460830864201D2002014E001A937
:102F70002000083003F054F8E079801C042121700F
:102F80000E216170C11CA1700121E1700D21217120
:102F9000FC216171801D80B241B050BD10B5062B7F
:102FA00001DC002010BD14008178407803F0ACFCF7
:102FB000A071042020700E216170A0700120E070CB
:102FC0000F202071FC20FFF7D5F81CB500200090E1
:102FD0000B2B15DB1400684603F09AFCA071E11D71
:102FE000009803F0A1FC042020700E2060700820DF
:102FF000A0700120E07014202071FC2060710B2073
:1030000016BD10B5062B01DC002010BD1400817820
:10301000407803F093FCA071042020700E216170B1
:10302000A0700120E07015202071FC20FFF7A2F8AD
:1030300010B51400062B01DC002010BD03F0EEFCDF
:10304000A071042020700E216170A0700120E0703A
:1030500016202071FC20FFF78DF810B586B01F2BCD
:1030600001DA00201DE0140002A9684603F0F8FC14
:10307000A07108226946E01D02F0D2FF102202A9C9
:1030800020000F3002F0CCFF042020700E20607072
:103090001C20A0700120E07017202071FC206071BE
:1030A0001F2006B010BD10B5062B01DC002010BD9E
:1030B0001400417882781206120C1143080003F0C4
:1030C000F9FCA071042020700E216170A070012015
:1030D000E07018202071FC20FFF74CF81CB5002090
:1030E000019000900F2B1BDB1400694601A803F030
:1030F000E9FCA071E11D019803F016FC21000B31E1
:10310000009803F011FC042020700E2060700C2049
:10311000A0700120E07019202071FC2060710F2048
:1031200016BD10B5062B01DC002010BD1400401C9C
:1031300003F0CCFC03F0D6FCA071042020700E211B
:103140006170A0700120E0701A202071FC20FFF750
:1031500011F810B51400062B01DC002010BD03F09F
:1031600031FBA071042020700E216170A07001203D
:10317000E07020202071FC20FEF7FCFF10B5062B2C
:1031800001DC002010BD1400037941790906090C07
:103190000B43C2788178407803F05DFBA071042076
:1031A00020700E216170A0700120E0702B20207132
:1031B000FC20FEF7DFFF10B51400062B01DC002019
:1031C00010BD03F09FFCA071042020700E216170DF
:1031D000A0700120E07081202071FC20FEF7CAFF62
:1031E000F0B587B0017A0400093465182C78091904
:1031F00041180A31062B01DC002032E014008B78E4
:10320000CA781206120C13430E784A781206120C72
:103210001643027941790906090C0A438178C77877
:103220003F063F0C3943069305966B1C04932B789D
:103230000393030009330293037A0193C379009344
:103240008379407803F068FCE070042020700F213F
:103250006170A0700120207182206071FC20A0713B
:10326000072007B0F0BDF0B587B0017A040009343B
:1032700065182C78091941180A31062B01DC002049
:1032800032E014008B78CA781206120C13430E78C1
:103290004A781206120C1643027941790906090C84
:1032A0000A438178C7783F063F0C39430693059659
:1032B0006B1C04932B780393030009330293037A66
:1032C0000193C37900938379407803F046FCA071A1
:1032D000042020700E216170A0700120E070832016
:1032E0002071FC206071072007B0F0BD1CB5062BD3
:1032F00001DC002016BD1400017B427B1206120C7B
:103300001143827AC37A1B061B0C1A430191009267
:10331000031DC2788178407803F040FCA07104203E
:1033200020700E216170A0700120E070842000F0F8
:1033300093FD10B5062B01DC002010BD1400407871
:1033400003F03EFCA071042020700E216170A0707B
:103350000120E07085202071FC20FEF70BFF30B5C6
:1033600085B00500062B01DC00201FE014000830AA
:1033700003F0ACFB297B04910390E8790290A879D3
:103380000190687900902B79EA78A978687803F041
:103390001FFCA071042020700E216170A07001201C
:1033A000E07086202071FC206071072005B030BDE0
:1033B00010B5062B01DC002010BD14004278817886
:1033C0000906090C0A43C178100003F04BFCA071F8
:1033D000042020700E216170A0700120E070872011
:1033E0002071FC20FEF7C6FE38B50500062B01DC77
:1033F000002032BD1400E81C03F068FB010068786F
:10340000AA781206120C104303F036FCA0710420B7
:1034100020700E216170A0700120E070882083E090
:1034200010B5062B01DC002010BD14004278817815
:103430000906090C0A43C178100003F029FCA071A9
:10344000042020700E216170A0700120E07089209E
:103450002071FC20FEF78EFE1FB500216C46A18175
:10346000A1600D2B01DA002027E0140002A90191D0
:10347000891C009103ABC2788178407803F012FC7C
:10348000A07168468089E071000A20726846408910
:103490006072000AA07268460089E072000A207318
:1034A000042020700E2060700A20A0700120E070BF
:1034B0008A202071FC2060710D2004B010BD10B571
:1034C000062B01DC002010BD14008178407803F049
:1034D00001FCA071042020700E216170A0700120F9
:1034E000E0708B202071FC20FEF744FE38B5062BDF
:1034F00001DC002032BD1400C17802791206120CE2
:103500001143457882781206120C1543837942796B
:10351000280003F0E9FBA071042020700E216170E7
:10352000A0700120E0708C202071FC2060710720C9
:1035300032BD10B5062B01DC002010BD140041780F
:1035400082781206120C1143080003F0D7FBE070DA
:10355000042020700F216170A070012020718D2047
:103560006071FC20FFF727FB10B5062B01DC002063
:1035700010BD1400811C407803F0C4FBA07104202E
:1035800020700E216170A0700120E0708E202071EB
:10359000FC20FEF7EFFD10B5062B01DC002010BD6E
:1035A0001400407803F0B6FBA071042020700E21B7
:1035B0006170A0700120E0708F202071FC20FEF768
:1035C000D9FD1CB500216C462180082B01DC0020B0
:1035D00016BD1400437881780906090C0B436A462E
:1035E00000A9491C180003F0A1FBA07168464078AF
:1035F000E071684600782072042020700E20607010
:103600000620A0700120E07090202071FC206071E5
:10361000092016BD10B5062B01DC002010BD1400DA
:10362000417882781206120C1143080003F084FBE3
:10363000A071042020700E216170A0700120E07044
:1036400091202071FC20FEF795FD10B51400062B8B
:1036500001DC002010BD03F07FFBA071042020706E
:103660000E216170A0700120E07092202071FC207A
:10367000FEF780FD10B5062B01DC002010BD140004
:10368000427881780906090C0A43C178100003F0DA
:1036900067FBE070042020700F216170A070012092
:1036A000207193206071FC20FFF785FA10B514009B
:1036B000062B01DC002010BD03F056FBA071042096
:1036C00020700E216170A0700120E07094202071A4
:1036D000FC20FEF74FFD10B5062B01DC002010BDCD
:1036E0001400417882781206120C1143080003F08E
:1036F0003FFBA071042020700E216170A07001209A
:10370000E07095202071FC20FEF734FD38B5062BC3
:1037100001DC002032BD1400C17802791206120CBF
:103720001143457882781206120C15438379427949
:10373000280002F058FEE070042020700F21617014
:10374000A0700120207196201DE038B5062B01DC09
:10375000002032BD1400C17802791206120C114308
:10376000457882781206120C154383794279280035
:1037700002F03DFEE070042020700F216170A07007
:103780000120207197206071FC20A071072032BDBC
:10379000F0B589B0062B01DC00204EE014000100DA
:1037A000CA7D087E0006000C0243684602844A7DFA
:1037B000887D0006000C0243CB7C087D0006000CCF
:1037C00003434D7C887C0006000C0543CE7B087CBF
:1037D0000006000C0643487B8F7B3F063F0C3843B6
:1037E0006F46F883C8780F793F063F0C38436F4621
:1037F000B88348788F783F063F0C38436F463F8C3C
:10380000069705920493039502966A46D28B01921D
:103810000A7B00928B1D4A796946898B02F0EBFD89
:10382000E070042020700F216170A07001202071D1
:1038300098206071FC20A071072009B0F0BDF8B598
:10384000C8B01600072B01DA00205FE00024050055
:103850000CE0E000011B09A840186918CA7C02703E
:1038600006221431401C02F0DBFB641CA87C84425D
:10387000EFDB3400297C687C0006000C01436846BD
:103880000184A97BE87B0006000C01432A7B687B4E
:103890000006000C0243AB7AE87A0006000C0343F2
:1038A0002E7A687A0006000C0643A879EF793F0665
:1038B0003F0C38436F46F883E8782F793F063F0C7A
:1038C00038436F46B8836878AF783F063F0C38437B
:1038D00009AF0697AF7C05976F463F8C049703911D
:1038E0000292019300966946CB8B6A79898B02F02C
:1038F00019FDE070042020700F216170A07001207C
:10390000207199206071FC20A071072049B0F0BDA2
:103910001CB5062B01DC002016BD1400027941798C
:103920000906090C0A438178C3781B061B0C19434E
:10393000037A0193C37900938379407802F00CFDF8
:10394000E070042020700F216170A07001202071B0
:103950009A206071FC20A071072016BD78B5C3B015
:103960001600072B01DA002035E0002405000CE0EA
:10397000E000011B04A8401869188A7A0270062228
:103980000B31401C02F04CFB641C687A8442EFDB74
:103990002A7968790006000C0243A978E8780006C5
:1039A000000C014304A80390687A0290287A0190E1
:1039B000E8790090AB79687802F0D8FCF0700420C8
:1039C00030700F217170B070012030719B207071C8
:1039D000FC20B071072044B070BDF0B589B0062B53
:1039E00001DC00204EE014000100CA7D087E0006C4
:1039F000000C0243684602844A7D887D0006000C64
:103A00000243CB7C087D0006000C03434D7C887C80
:103A10000006000C0543CE7B087C0006000C064324
:103A2000487B8F7B3F063F0C38436F46F883C8784E
:103A30000F793F063F0C38436F46B88348788F783C
:103A40003F063F0C38436F463F8C06970592049320
:103A5000039502966A46D28B01920A7B00928B1DD7
:103A60004A796946898B02F091FCE070042020704D
:103A70000F216170A070012020719C206071FC20DA
:103A8000A071072009B0F0BD10B5062B01DC0020A5
:103A900010BD1400407802F0A2FCA0710420207038
:103AA0000E216170A0700120E0709D202071FC202B
:103AB000FEF760FBF8B584B0062B01DC00203DE08A
:103AC0001400427B817B0906090C0A43C57A017BFD
:103AD0000906090C0D43467A817A0906090C0E4342
:103AE000C379017A0906090C0B43417987793F06AE
:103AF0003F0C39436F46F981C17807793F063F0C87
:103B000039436F46B981417887783F063F0C394386
:103B100008000292019500966946CA89898902F0D7
:103B200050FCE070042020700F216170A070012013
:103B300020719E206071FC20A071072005B0F0BDAF
:103B400010B5062B01DC002010BD140042788178EE
:103B50000906090C0A43C178100002F071FCE070FC
:103B6000042020700F216170A070012020719F201F
:103B70006071FC20FFF71FF81CB50D2B01DA002047
:103B800016BD14006946401C03F0F6F8A071062229
:103B90006946E01D02F044FA042020700E20607097
:103BA0000A20A0700120E070A0202071FC20FFF707
:103BB000B2F8F0B5C3B0060017000830F179451827
:103BC000072B01DA002035E000240CE0E000011BA7
:103BD000681804AA5318417819700622811C581CD1
:103BE00002F01EFA641C28788442EFDBF178307909
:103BF0000006000C01437078B2781206120C1043D4
:103C000004AA03922A780292320008320192F279D1
:103C10000092B379727903F0B3F8B8710420387068
:103C20000E217970B8700120F870A1203871FC2045
:103C30007871072043B0F0BD3EB5062B01DC0020B3
:103C40003EBD1400C17802791206120C114345786A
:103C500082781206120C1543027A0192C279009200
:103C600083794279280002F0E1FBE07004202070A3
:103C70000F216170A07001202071A2206071FC20D2
:103C8000A07107203EBDF8B5C0B01C0000256946F4
:103C90000D702700072F2CDB160001A9684603F0E2
:103CA0008FF8B071072F24DD68460078F071350079
:103CB0006A4654800226002406E00622491C093088
:103CC00002F0AEF9B61D641C68460078844212DA30
:103CD00068464088F11D88420BD3E000011B68183C
:103CE00001AA51180A780272761C32000C329742EF
:103CF000E3DA00200DE0042028700E206870F01C2C
:103D0000A8700120E870A3202871FC206871B61DFE
:103D1000B0B241B0F0BD10B5062B01DC002010BDE3
:103D20001400811C407803F055F8A0710420207025
:103D30000E216170A0700120E070A4202071FC2091
:103D4000FEF718FA10B5062B01DC002010BD140098
:103D5000427881780906090C0A43C178100002F004
:103D60001EFCA071042020700E216170A070012043
:103D7000E070A5202071FC20FEF7FCF910B5062BA1
:103D800001DC002010BD1400427881780906090C7E
:103D90000A43C178100002F0FEFBA07104202070DD
:103DA0000E216170A0700120E070A6202071FC201F
:103DB000FEF7E0F938B588B000216C46A180202BD1
:103DC00001DA00202CE01400050004A8009001ABEB
:103DD00002AA01A9491C687803F00CF8A071684692
:103DE0004079E071062202A92000083002F018F99B
:103DF0006878A07368460079E073102204A9200057
:103E0000103002F00DF9042020700E2060701D208B
:103E1000A0700120E070A7202071FC20607120209C
:103E200009B030BD1CB5062B01DC002016BD140006
:103E300001000B310191817A0091437AC21C817893
:103E4000407802F0E1FFA071042020700E21617023
:103E5000A0700120E070A8202071FC206071072074
:103E600016BDF8B5C0B01600811C4278D400A21A65
:103E700089180091072B01DA002025E0002401AF0A
:103E800005000CE0E000001BA91C095C3954062267
:103E90002918C91C7B1C181802F0C2F8641C687829
:103EA0008442EFDB00990A7801A902F0E3F9B071CE
:103EB000042030700E217170B0700120F070A920C4
:103EC0003071FC207071072041B0F0BD10B5062B99
:103ED00001DC002010BD1400811C407802F0A8FF16
:103EE000A071042020700E216170A0700120E0708C
:103EF000AA202071FC20FEF73DF910B51400062B16
:103F000001DC002010BD02F09DFFA0710420207094
:103F10000E216170A0700120E0702071FD20FEF77D
:103F200029F9F0B587B0040060780126012801D195
:103F3000032004E0022801D1112000E00120611CCF
:103F40000818029000206D46A880092B28DB6178B4
:103F50000225012901D1022002E0022900D110200E
:103F600017000200A11C03A802F05AF801A8009053
:103F700002984378027803A9607802F067FFB8716D
:103F800068468088F871000A3872042038700E2064
:103F900078700620B870FE703D71FD2078710920A0
:103FA00007B0F0BD30B587B000216D462981082BE0
:103FB00001DC002038E00400E079012801D1022171
:103FC00002E0022800D1102115000A00210008316A
:103FD00003A802F025F86279A0790006000C0243DC
:103FE000E17820790006000C01436078A3781B0675
:103FF0001B0C184302AB019303AB0093E37902F06F
:1040000040FFA87168460089E871000A2872042000
:1040100028700E2068700620A8700120E870032028
:104020002871FD206871092007B030BD78B58BB0CC
:104030000400E078012801D1052004E0022801D124
:10404000132000E00320611C0D1800206E46308311
:10405000092B39DBE178012901D1022002E0022994
:1040600000D1102016000200211D07A801F0D8FF82
:104070002B7868780006000C03436078A178090665
:10408000090C084306A90591A9790491697903915E
:1040900029790291E9780191A978009107AAE1783C
:1040A00002F006FFB0716846008BF071000A3072B2
:1040B000042030700E2171700621B1700121F17061
:1040C0003071FD20707109200CB070BDF8B58EB054
:1040D000040065791520012D01D1072604E0022D89
:1040E00001D1152600E00526671CBF19012D01D15D
:1040F000072002E0022D00D00520E11C7D78401948
:104100000D1800206E46B084092B40DB617901292F
:1041100001D1022002E0022900D110201600020085
:10412000A11D0AA801F07CFFE17820790006000CAF
:1041300001436078A2781206120C104309AA089273
:104140002A790792EA780692AA7805926A78049208
:104150002A780392BA1C02927A7801923A780092F5
:104160000AAB627902F0C3FEB0716846808CF071D0
:10417000000A3072042030700E2070700620B0707B
:104180000120F07005203071FD20707109200FB002
:10419000F0BD38B5062B01DC002032BD1400C1781B
:1041A00002791206120C1143457882781206120C1D
:1041B0001543C21D009283794279280002F0BFFEA8
:1041C000A071042020700E216170A0700120E070A9
:1041D00006202071FD20FFF7A9F910B5062B01DCA0
:1041E000002010BD1400C17802791206120C114390
:1041F000427883781B061B0C1A43100002F0A9FEBC
:10420000A071042020700E216170A0700120E07068
:1042100007202071FD20FDF7ADFF10B5062B01DC56
:10422000002010BD1400417882781206120C114350
:10423000080002F092FEA071042020700E2161702F
:10424000A0700120E07008202071FD20FDF792FF92
:1042500010B5062B01DC002010BD1400C1780279D6
:104260001206120C1143427883781B061B0C1A436A
:10427000100002F076FEA071042020700E21617003
:10428000A0700120E07009202071FD20FDF772FF71
:1042900010B5062B01DC002010BD1400401C02F0FC
:1042A00015FC02F063FEA071042020700E216170E5
:1042B000A0700120E0700A202071FD20FDF75AFF58
:1042C00010B5062B01DC002010BD14004178827867
:1042D0001206120C1143080002F058FEE070042090
:1042E00020700F216170A070012020710B2060717F
:1042F000FD20FEF760FC38B5062B01DC002032BD46
:104300001400427981790906090C0A43C1780379BE
:104310001B061B0C1943437885782D062D0C2B4367
:10432000180002F037FEE070042020700F21617049
:10433000A070012020710C206071FD20FFF725FA8C
:104340007CB5062B01DC002076BD14000500EB795E
:10435000287A0006000C03436A79A8790006000C4D
:104360000243E97828790006000C01436878AE78AA
:104370003606360C30432E000A3601966D7A0095CB
:1043800002F00CFEE070042020700F216170A0701C
:10439000012020710D206071FD20A071072076BDE5
:1043A00030B585B0072B01DA002032E00400E07957
:1043B000012801D1022004E0022801D1102000E0F0
:1043C0000020150002002100083101A801F028FE9C
:1043D0006279A0790006000C0243E178207900069A
:1043E000000C01436078A3781B061B0C184301AB3B
:1043F0000093E37902F0E0FDE870042028700F21BB
:104400006970A870012028710E206871FD20A871C4
:10441000072005B030BD30B585B0072B01DA00208C
:1044200031E00400E079012801D1022004E00228F3
:1044300001D1102000E00020150002002100083109
:1044400001A801F0EDFD6279A0790006000C02439D
:10445000E17820790006000C01436078A3781B0600
:104460001B0C184301AB0093E37902F0B9FDE8702F
:10447000042028700F216970A870012028716971CB
:10448000FD20A871072005B030BD38B5062B01DC32
:10449000002032BD1400427981790906090C0A43D3
:1044A000C17803791B061B0C1943457883781B06DA
:1044B0001B0C1D43030008330093C379280002F04E
:1044C000A3FDE070042020700F216170A070012016
:1044D000207110206071FD20FFF757F910B5062BF1
:1044E00001DC002010BD1400427881780906090C17
:1044F0000A43C178100002F091FDE07004202070A2
:104500000F216170A0700120207111206071FD20C9
:10451000FEF751FB10B5062B01DC002010BD140086
:10452000417882781206120C1143080002F07AFDDD
:10453000E070042020700F216170A07001202071B4
:1045400012206071FD20FEF736FB38B584B0062BD3
:1045500001DC002026E00500E878012801D10220D6
:1045600004E0022801D1102000E000201400020025
:10457000291D684601F054FD6878A9780906090CE0
:1045800008436A46E97802F051FDE070042020708B
:104590000F216170A0700120207113206071FD2037
:1045A000A071072005B030BD38B5062B01DC002016
:1045B00032BD1400427981790906090C0A43C17899
:1045C00003791B061B0C1943437885782D062D0CA7
:1045D0002B43180002F03AFDE070042020700F21F8
:1045E0006170A0700120207114206071FD20FFF720
:1045F000CCF838B5062B01DC002032BD140042791E
:1046000081790906090C0A43C17803791B061B0C42
:104610001943437885782D062D0C2B43180002F0A2
:1046200019FDE070042020700F216170A07001203E
:10463000207115206071FD20FFF7A7F830B585B017
:10464000072B01DA002032E00400E079012801D1D3
:10465000022004E0022801D1102000E00020150013
:1046600002002100083101A801F0DAFC6279A0798A
:104670000006000C0243E17820790006000C01439B
:104680006078A3781B061B0C184301AB0093E379F9
:1046900002F0E4FCE870042028700F216970A87013
:1046A0000120287116206871FD20A871072005B02F
:1046B00030BD38B5062B01DC002032BD1400427934
:1046C00081790906090C0A43C17803791B061B0C82
:1046D0001943437885782D062D0C2B43180002F0E2
:1046E000D1FCE070042020700F216170A0700120C7
:1046F000207117206071FD20FFF747F810B5062BD9
:1047000001DC002010BD1400C17802791206120CE1
:104710001143427883781B061B0C1A43100002F0E9
:10472000B5FCE070042020700F216170A0700120A2
:10473000207118206071FD20FEF73DFA30B585B07C
:10474000072B01DA002032E00400E079012801D1D2
:10475000022004E0022801D1102000E00020150012
:1047600002002100083101A801F05AFC6279A07909
:104770000006000C0243E17820790006000C01439A
:104780006078A3781B061B0C184301AB0093E379F8
:1047900002F080FCE870042028700F216970A87076
:1047A0000120287119206871FD20A871072005B02B
:1047B00030BD38B5062B01DC002032BD1400427933
:1047C00081790906090C0A43C17803791B061B0C81
:1047D0001943437885782D062D0C2B43180002F0E1
:1047E0006DFCE070042020700F216170A07001202A
:1047F00020711A206071FD20FEF7C7FF70B5C0B0B0
:10480000062B01DC002026E0002109E04B00C51842
:104810002C796E793606360C34436D46EC52491CC1
:10482000C3789942F2DB1400437881780906090CB9
:104830000B436A46C178180002F044FCE070042083
:1048400020700F216170A070012020711B20607109
:10485000FD20A071072040B070BD38B5062B01DCEB
:10486000002032BD1400C17802791206120C1143E7
:10487000457882781206120C1543831D4279280070
:1048800002F024FCE070042020700F216170A07001
:10489000012020711C206071FD20FEF776FF38B5E5
:1048A000062B01DC002032BD140042798179090613
:1048B000090C0A43C17803791B061B0C1943457880
:1048C00083781B061B0C1D43030008330093C37938
:1048D000280002F0FFFBE070042020700F216170BF
:1048E000A070012020711D206071FD20FEF74DFF9A
:1048F00038B5062B01DC002032BD140042798179E5
:104900000906090C0A43C17803791B061B0C1943DD
:10491000457883781B061B0C1D4303000833009366
:10492000C379280002F0E0FBE070042020700F2122
:104930006170A070012020711E206071FD20FEF7C3
:1049400024FF38B5062B01DC002032BD140042796B
:1049500081790906090C0A43C17803791B061B0CEF
:104960001943457883781B061B0C1D43030008334D
:104970000093C379280002F0C1FBE070042020708E
:104980000F216170A070012020711F206071FD2037
:10499000FEF7FBFE38B5062B01DC002032BD14000B
:1049A000427981790906090C0A43C17803791B060B
:1049B0001B0C1943437885782D062D0C2B431800CA
:1049C00002F0A6FBE070042020700F216170A0703F
:1049D0000120207120206071FD20FEF7D6FE38B541
:1049E000062B01DC002032BD1400C17802791206CA
:1049F000120C1143457882781206120C1543831D60
:104A00004279280002F088FBE070042020700F211A
:104A10006170A0700120207121206071FD20FEF7DF
:104A2000B4FE10B5062B01DC002010BD1400C178C7
:104A300002791206120C1143427883781B061B0C74
:104A40001A43100002F06CFBE070042020700F216C
:104A50006170A0700120207122206071FD20FEF79E
:104A6000AAF838B5062B01DC002032BD1400C1784D
:104A700002791206120C1143457882781206120C44
:104A80001543831D4279280002F04EFBA0710420DB
:104A900020700E216170A0700120E0702320207131
:104AA000FD20FEF743FD38B5062B01DC002032BDAA
:104AB0001400C17802791206120C114345788278ED
:104AC0001206120C1543831D4279280002F030FBB8
:104AD000A071042020700E216170A0700120E07090
:104AE00024202071FD20FEF721FD10B5062B01DCEE
:104AF000002010BD1400417882781206120C114378
:104B0000080002F019FBA071042020700E216170D2
:104B1000A0700120E07025202071FD20FDF72AFB08
:104B20003EB5062B01DC00203EBD1400C1780279A1
:104B30001206120C1143457882781206120C1543A6
:104B4000020008320192C2790092837942792800EA
:104B500002F0F6FAA071042020700E216170A0709E
:104B60000120E07026202071FD20607107203EBDED
:104B700010B5062B01DC002010BD140041788278AE
:104B80001206120C1143080002F0E8FAA07104208A
:104B900020700E216170A0700120E070272020712C
:104BA000FD20FDF7E7FA10B5062B01DC002010BD53
:104BB0001400C17802791206120C114343788278EE
:104BC0001206120C13434279180002F0CDFAA071BC
:104BD000042020700E216170A0700120E070282058
:104BE0002071FD20FDF7C6FA7CB5062B01DC002004
:104BF00076BD14000500EB79287A0006000C03430B
:104C00006A79A8790006000C0243E9782879000641
:104C1000000C01436878AE783606360C30432E001F
:104C20000A3601966D7A009502F0A2FAA07104206E
:104C300020700E216170A0700120E0702920207189
:104C4000FD206071072076BDD8B5C3B01E000021DD
:104C50006B469960062E2EDD140042798179090693
:104C6000090C0A43C17803791B061B0C19434378CE
:104C700087783F063F0C3B43180003AB019302AB20
:104C800000939B1C02F082FAA071092E13DB684688
:104C90004089E071000A20720B2E0CDB6846008907
:104CA0006072000AA072607AA17A0906090C0843B2
:104CB0000B30864201D200201DE0627AA07A000605
:104CC000000C024303A920000B3001F0A9F9607A1F
:104CD000A17A0906090C0843401D042121700E2108
:104CE0006170C11CA1700121E1702A212171FD2197
:104CF0006171801D80B244B0D0BDF8B584B0062B80
:104D000001DC002031E0140003009D7AD87A00060F
:104D1000000C05431E7A587A0006000C06435A79A7
:104D200098790006000C0243D97818790006000C27
:104D3000014358789F783F063F0C38431F000D37DA
:104D400003971F7B029701950096DB7902F048FAE2
:104D5000A071042020700E216170A0700120E0700D
:104D60002C202071FD206071072005B0F0BD10B52A
:104D7000062B01DC002010BD140042788178090662
:104D8000090C0A43C178100002F03BFAA07104201C
:104D900020700E216170A0700120E0702D20207124
:104DA000FD20FDF7E7F910B5062B01DC002010BD52
:104DB0001400C17802791206120C114343788278EC
:104DC0001206120C13434279180002F020FAA07167
:104DD000042020700E216170A0700120E0702E2050
:104DE0002071FD20FDF7C6F9F8B5062B01DC002087
:104DF000F2BD1400467A817A0906090C0E43C37984
:104E0000017A0906090C0B43427981790906090CDC
:104E10000A43C17805792D062D0C294345788778FA
:104E20003F063F0C3D432800009602F0F4F9E07085
:104E3000042020700F216170A0700120207181205A
:104E40006071FD20A0710720F2BDF8B586B0062B79
:104E500001DC002041E0140001004A7B887B000651
:104E6000000C0243CD7A087B0006000C05434E7A05
:104E7000887A0006000C0643CB79087A0006000CFD
:104E8000034348798F793F063F0C38436F46F882D9
:104E9000C8780F793F063F0C38436F46B882487890
:104EA0008F783F063F0C38430F7C0497C97B0391F2
:104EB0000292019500966946CA8A898A01F0C4FA6D
:104EC000A071042020700E216170A0700120E0709C
:104ED00082202071FD206071072007B0F0BD70B501
:104EE000062B01DC002070BD1400C379017A09068D
:104EF000090C0B43427981790906090C0A43C178F0
:104F000005792D062D0C2943457886783606360C12
:104F10003543280001F0C4FCA071042020700E214C
:104F20006170A0700120E07000202071FE2060718F
:104F3000072070BD38B5062B01DC002032BD1400FF
:104F4000427981790906090C0A43C17803791B0665
:104F50001B0C1943437885782D062D0C2B43180024
:104F600001F0A2FCA071042020700E216170A070DD
:104F70000120E0702071FE20FEF7D8FA10B5062B54
:104F800001DC002010BD1400C17802791206120C59
:104F90001143437882781206120C134342791800A9
:104FA00001F086FCA071042020700E216170A070B9
:104FB0000120E07002202071FE20FDF7DBF810B523
:104FC000062B01DC002010BD1400407801F074FCB9
:104FD000A071042020700E216170A0700120E0708B
:104FE00003202071FE20FDF7C5F81FB500200390B7
:104FF00002906C4620800190152B26DB140001AB3B
:105000006A4602A903A801F066FCA071E11D03989D
:1050100001F08AFC21000B31029801F085FC684602
:105020000088E073000A207421001131019801F01A
:105030007BFC042020700E2161701221A1700121DF
:10504000E1702071FE206071152004B010BD00B524
:10505000C1B06B46D8701971090A59719A71042050
:10506000187005215970987000220DE000B5C1B08C
:105070006B46D8701971090A59719A710420187019
:1050800008215970987001220721684602F09EFBA2
:1050900041B000BD18B5C1B06C46E0702171090A7D
:1050A0006171A271E3711B0A237244A800886072C7
:1050B000000AA072042020700C2060700820A070EC
:1050C00002220B21C9E000B5C1B06946C8700420B6
:1050D0000870102048700120887005220421D4E750
:1050E000F0B5C1B00B0000216C46E0700025060051
:1050F0000CE0A80022181F5A17713F0A57719F1C15
:10510000385A9071000AD071091D6D1CB542F0DB50
:105110000420207013206070491CA1700622CCE28C
:1051200000B5C1B06A46D0701171090A51710420EE
:105130001070302050700320907007220621A4E7E1
:1051400000B5C1B06946487104200870FF2048705E
:10515000032088700120C8700020087108220621F1
:1051600093E7F6B5C1B01E004E9D4F9F6C4660712F
:10517000A11D419801F0D8FB21000A31429801F0AD
:10518000D3FB21000E31300001F0CEFB21001231A3
:10519000489801F0C9FB21001631499801F0C4FB81
:1051A00021001A314A9801F0BFFB21001E314B98B3
:1051B00001F0BAFB210022314C9801F0B5FB21002F
:1051C00026314D9801F0B0FB2A2025542A003900E1
:1051D00020002B3000F024FF04202070FF2060709E
:1051E0002835A5700320E070002020710022D243F2
:1051F000E9B2C91C89B2684600F0D3FD18B5C1B048
:10520000030010006C466371A171E11D01F08CFB7D
:1052100004202070FF2161700821A170E07000203F
:1052200020710022D2430B2117E018B5C1B00B004A
:1052300011006C466071A3710622E01D00F0F0FEC3
:1052400004202070FF2060700A20A0700520E0700C
:10525000002020710022D2430D21684602F0B6FAE8
:1052600042B010BD30B5C1B00D0011006C46607188
:10527000A5712A00E01D00F0D3FE04202070FF205D
:1052800060702D1DA5700620E070002020710022A6
:1052900028E100B5C1B0042069460870FF224A70B9
:1052A00002228A700022CA70087109220521ECE6E8
:1052B00000B5C1B06B465871000A9871D9711A7265
:1052C00004201870FF215970062199700121D970AE
:1052D00018710A220921D8E600B5C1B069464871A3
:1052E000000A887104200870FF224A708870022228
:1052F000CA7008710B22C7E600B5C1B06946487193
:10530000000A887104200870FF224A708870032206
:10531000CA7008710C22B7E600B5C1B00420694616
:105320000870FF224A7002228A70C87008710D222C
:105330000521AAE600B5C1B0042069460870FF2225
:105340004A7002228A700522CA7008710E22052155
:105350009BE678B5C1B00E00150019006C4660716F
:10536000A671E5712000083000F05AFE042020707C
:10537000FF2161706D1DA5700722E27020710F2260
:105380006DE100B5C1B069464871000A887104201A
:105390000870FF224A7088700822CA7008711022B3
:1053A00072E618B5C1B0020008006C466271120ABC
:1053B000A271E11D01F0B8FA04202070FF21617094
:1053C0000821A1700921E170207136220B2144E7E8
:1053D00000B5C1B06A465071000A9071D1710420C5
:1053E0001070FF215170052191700A21D170107148
:1053F0003722082149E600B5C1B06A465071000A5B
:105400009071D171090A117204201070FF20507040
:10541000062090700020D070082010711122092100
:1054200033E630B5C1B00D0011006C466071000A62
:10543000A071E5712A002000083000F0F1FD042081
:105440002070FF2060706D1DA5700120E0700820A5
:105450002071122247E018B5C1B06C466071000A95
:10546000A071E1712272120A6272A3721B0AE372C6
:1054700044A800882073000A607345A80088A073C0
:10548000000AE07346A800882074000A60740420B3
:105490002070FF2060700F20A0700220E0700820B4
:1054A000207113221221D8E630B5C1B01D00449BF3
:1054B0006C466071000AA071E1712272120A627278
:1054C000A5722A00190020000B3000F0A9FD04206D
:1054D0002070FF2060700835A5700A20E070082059
:1054E00020710122D243E9B2C91C89B2684602F098
:1054F0006DF941B030BDF0B5C1B006000D001F0020
:10550000469B3A0002F04BFA002866D16C46667161
:10551000360AA671E5712D0A25726072A0723D00EF
:10552000469E57E0F52002E0F628FBDA2800E072FC
:10553000000A2073E27A207B0006000C0243607AA6
:10554000A17A0906090C0843311820000D3000F03B
:1055500067FD04202070FF206070E07A217B09063F
:10556000090C08430A30A0700120E0700C20207163
:10557000E07A217B0906090C08432D1A28040AD079
:10558000607AA17A0906090C0843802109020143C7
:105590006172090AA1721422A178C91C89B26846F5
:1055A00002F014F9607AA17A0906090C0843400454
:1055B000400C6072000AA072607AA17A0906090C98
:1055C0000843E17A227B1206120C114340186072E4
:1055D000000AA072A8B20028A6D141B0F0BD00B563
:1055E000C1B069464871000A887104200870FF2222
:1055F0004A7088700220C8700C200871152243E59B
:1056000000B5C1B06A465071000A9071D171090AA3
:10561000117204201070FF2050700620907003203B
:10562000D0700C201071162209212EE578B5C1B07A
:105630000E00150019006C466071000AA071E67139
:1056400025722000093000F0EBFC04202070FF21BF
:105650006170AD1DA570E0700C2020711722E9B2B9
:10566000C91C89B2684602F0B1F842B070BDF0B50D
:10567000C1B06C466071030AA371E17100250E0090
:10568000130000210CE0A80022181F5A17723F0ACD
:1056900057729F1C385A9072000AD072091D6D1CF7
:1056A000B542F0DB04202070FF206070491DA1701E
:1056B0000520E0700C2020711822C9B2C91C89B2E3
:1056C000684602F083F841B0F0BD78B5C1B00E0075
:1056D000150019006C466071000AA071E671257210
:1056E0002000093000F09CFC04202070FF20607036
:1056F000AD1DA5700620E0700C2020711922AEE7C8
:1057000030B5C1B00D0011006C466071000AA07187
:10571000E5712A002000083000F082FC042020708F
:10572000FF2060706D1DA5700720E0700C202071B7
:105730001A22D8E630B5C1B00D0011006C46607178
:10574000000AA071E5712A002000083000F068FC12
:1057500004202070FF2060706D1DA5700820E0708F
:105760000C2020711B22BEE630B5C1B00D00110027
:105770006C466071000AA071E5712A0020000830B3
:1057800000F04EFC04202070FF2060706D1DA5709D
:105790000920E0700C2020711C22A4E678B5C1B06D
:1057A0000E00150019006C466071000AA071E671C8
:1057B00025722000093000F033FC04202070FF2007
:1057C0006070AD1DA5700A20E0700C2020711D22B4
:1057D00045E730B5C1B01D00449B6C466071000ABE
:1057E000A071E171090A21726272120AA272E57255
:1057F0002A00190020000C3000F012FC0420207058
:10580000FF2060700935A5700C20E07020711F2208
:1058100069E600B5C1B069464871000A8871042084
:105820000870FF224A7088700D20C8700C20087123
:105830002022FFF729FC78B5C1B00E001500190031
:105840006C466071000AA071E671360A26726572B4
:1058500020000A3000F0E4FB04202070FF2060707C
:10586000ED1DA5700E20E0700C2020712122F6E6BF
:10587000F1B5C2B00F0015001E0042A8008802F06A
:1058800084F8002820D16C4642A800886071000A84
:10589000A071E7713F0A277265722A00310020006B
:1058A0000A3000F0BDFB04202070FF206070ED1D69
:1058B000A5700F20E0700C2020712222E9B2C91CD3
:1058C00089B2684601F082FF43B0F0BD00B5C1B0B7
:1058D0006A465071000A9071D17104201070FF2047
:1058E0005070052090701020D0700C201071232271
:1058F0000821FFF7CAFB18B5C1B06C466071000AF9
:10590000A071E1712272120A6272A37204202070E7
:10591000FF2060700820A0701120E0700C20207122
:1059200024220B2199E478B5C1B00E0015001900AE
:105930006C466071000AA071E671360A26726572C3
:1059400020000A3000F06CFB04202070FF20607003
:10595000ED1DA5701220E0700C20207125227EE63E
:1059600078B5C1B00E00150019006C466071000AD0
:10597000A071E671360A2672657220000A3000F0C6
:105980004FFB04202070FF206070ED1DA5701320D8
:10599000E0700C202071262261E600B5C1B06B4694
:1059A0005871000A9871D971090A19725A72120A4B
:1059B0009A7204201870FF205870082098701420E4
:1059C000D8700C20187127220B21FFF75EFB78B5E9
:1059D000C1B00B0000216C466071000AA071E37138
:1059E000002007E045006619555B35722D0A757277
:1059F000891C401C9842F5DB04202070FF20607059
:105A0000491DA1701520E0700C2020712822C9B218
:105A100026E630B5C1B005000C0001F0CAFF002831
:105A200014D1684645712D0A8571C471240A047227
:105A300004210170FF214170062181701621C1707F
:105A40000C2101712922092101F0C0FE41B030BDB5
:105A500000B5C1B069464871000A88710420087019
:105A6000FF224A7088701720C8700C2008712A2203
:105A7000FFF70AFB30B5C1B01D00449B6C46607156
:105A8000000AA071E171090A21726272120AA272FF
:105A9000E5722A00190020000C3000F0C1FA042041
:105AA0002070FF2060700935A5701820E0700C2070
:105AB00020712B2217E578B5C1B01E00469B4A9D88
:105AC0006C4620716171090AA171E2712672062289
:105AD00019002000093000F0A3FA47A80088E073FD
:105AE000000A207448A800886074000AA07449A8BD
:105AF0000088E074000A20756575042020703E203F
:105B000060701320A0700120E0702C221621A9E5FE
:105B1000F0B5C3B0002502AA107100276A461070C4
:105B2000019124E0001D461901981421794344187D
:105B3000207870706078B0700622A11CF01C00F014
:105B40006FFA207A7072227AE16830000A3000F031
:105B500067FA207A010009316D1801222100103105
:105B600033000A33181800F05BFA6D1C7F1C68467E
:105B70000078874202A8D5DB042202703E224270E0
:105B8000A91C81700222C2702D2207E118B5C1B094
:105B90006C4620716171090AA171E271120A2272C8
:105BA00063721B0AA37244A80088E072000A207383
:105BB000042020703E2060700A20A0700320E07056
:105BC0002E22FFF749FB18B5C1B00B0011006C463F
:105BD000207163711B0AA3710822E01D00F020FAF6
:105BE000042020703E2161700C21A170E0702F22F2
:105BF0000F21FFF732FB30B5C1B015006C462071A4
:105C0000000A60710822A01D00F00AFAA5732D0A8F
:105C1000E573042020703E2060700D20A0700520E8
:105C2000E0703022102161E418B5C1B06C462071DB
:105C3000000A6071A171090AE1712272120A62728E
:105C4000A3721B0AE37244A800882073000A6073E1
:105C5000042020703E2060700B20A0700720E070B0
:105C600031220E21FFF7F9FA18B5C1B06C46207148
:105C70004022601D00F0D4F9042020703E206070A6
:105C80004220A0700820E07032224521FFF7E5FA9B
:105C900018B5C1B06C4620712022601D00F0C0F91B
:105CA000042020703E2060702220A0700920E07047
:105CB00033222521FFF7D1FAF3B5C1B04899499FA6
:105CC0004A9E4E9D6C46207142A800886071000A71
:105CD000A071E271237206222000093000F0A0F9C1
:105CE0000622390020000F3000F09AF90622310018
:105CF0002000153000F094F94BA80088E076000AE7
:105D000020774CA800886077000AA0774DA800880B
:105D1000E077000A641CE077641E212025540420EB
:105D200020703E2060701F20A0700A20E070342296
:105D30002221684635E0F0B5C3B0002602AA1071F2
:105D400000276A46107001911AE0380102A90D1867
:105D500001990C18207868716078A8710622A11C3E
:105D6000E81D00F05DF9207A6873062221000931F0
:105D700028000E3000F054F9E07B287510367F1CA7
:105D8000684600788742E0DB02A8042202703E22C7
:105D90004270B11C81700B22C2703522C9B2C91C7D
:105DA00089B201F013FD43B0F0BD10B501F066FEFD
:105DB00010BD0C0802170D010102090901010602BC
:105DC00009FFFFFFFFFF0909FFFFFFFFF8B50646C8
:105DD000002000906946304601F06EFE050002D0BA
:105DE000452D26D026E014481B2100688901411862
:105DF000C97E0227009C09071CD502218B020830AE
:105E0000C0180C2240690B4601F0B0FE010011D011
:105E10008E8022788A716278A3781B0213430B81EB
:105E2000E3782279384612021A434A8101F0FCFED7
:105E300000E000252846F8BD8453002070B5084ACC
:105E4000002103461B2412680846A40156185D5C15
:105E50003619491CC9B2B5760829F7D370BD0000C0
:105E60008453002010B501F0F3FE002010BD10B5E2
:105E70001446080003D0012801D0122004E0114686
:105E800001F05AFF002801D07F21217010BD70471A
:105E900030B50B24039D0470054800688030408CA9
:105EA000088014703020188013202880002030BD16
:105EB000845300200F21274A13681B090B404370AD
:105EC000136819408170D26842600121224B9A42C6
:105ED00009D1224A1268224B9A4201D1042200E0E1
:105EE0000222027000E001704278002A00D1417065
:105EF0001C490988491C89008160704710B51A4CFB
:105F00002100282201F03EFF0020206010BD70B566
:105F100000230024144AA5005351641C0A2CFAD310
:105F2000116050600223C026F60199004418083C15
:105F3000E0252D066519B54201D2246854505B1C3A
:105F40000A2BF2D3BFF34F8F084809490860BFF30B
:105F50004F8FFEE71C00904041A000021C00001083
:105F600044A000F214001040340000200400FA05A0
:105F70000CED00E07FB504000D0016006846FFF749
:105F800099FF6846017821704178297080783070D7
:105F90007FBDF8B504464022002100F047F80120FB
:105FA000C04606460120C04605460120C0460746B9
:105FB000202020708020A070C02060710420A0727A
:105FC0002820A0732220E073F72060763C206843ED
:105FD000C3210843A0760C206843F3210843E076F0
:105FE0007E20054325770120C046C0214843203448
:105FF00060700120C04601463846062250430143E6
:106000003046F82250430143A1700120C046C10030
:10601000F200901B0143E170B000E0710020F8BD78
:1060200010B5040001F0AEFE200010BD10B5040054
:10603000080011000200200001F0B2FE200010BD97
:1060400080B501F0D7FE02BD10B50446082200213C
:10605000FFF7ECFF60202071002010BD10B504494F
:10606000062209687831FFF7DBFF002010BD000031
:106070008453002010B50C460146204601F0CAFEAC
:10608000002801D07E21217010BD704770B50546F3
:10609000002440782646022801D0042803D101209C
:1060A000C04600280DD0084837210068490103196F
:1060B0002A5D5B18641CE4B29A70082CF7D3304652
:1060C00070BD1126FBE700008453002010B50C467C
:1060D000FB2101800120C04601280ED01B201F306B
:1060E00040094100411806484078401A0921C01E65
:1060F00001F0C3FE2070002010BDFB20EFE7000080
:106100006052002010B501F00FFF002010BD704755
:1061100070B50446002501F027FF064601F048FF50
:10612000082E01D1082801D00C2070BD0C4E0D4B5B
:10613000306806222146C018FFF772FF204600F0A3
:10614000C5FC01213268000289025618401CF06526
:10615000E01C00F0BBFC0002000A3066284670BD5F
:1061600084530020EF060000F0B585B06F460A9E0C
:106170000D9D0C9C388079803A71052A02D312203B
:1061800005B0F0BDFB713E723846062209300B990E
:10619000FFF746FF6846447185710079012804D0F5
:1061A000042802D0032DEAD807E06946097A0129BC
:1061B00001D00029E3D1012810D0684601880F4A98
:1061C000084620389042DAD2684640882028D6D344
:1061D000012292039042D2D88142D0D86846C07939
:1061E000002805D0012803D0022801D00328C6D1F9
:1061F0006007C4D0684601F0FFFEC1E7E13F000040
:1062000010B501F09FFF10BD10B50A461F2801D937
:10621000122010BD0146104601F0A0FF10BD10B5C0
:106220000A461F2801D9122010BD0146104601F070
:10623000D1FF10BD1CB504460D4801682320400164
:1062400008184079012801D0032807D1684601F0D9
:10625000EFFF684601F0FAFF002803D0012C03D0BD
:10626000002C01D012201CBD204601F0FBFF1CBDFC
:106270008453002080B502F003F902BD80B502F01E
:106280003CF902BD80B502F044F902BD80B502F0D0
:1062900061F902BD80B502F061F902BD80B502F07E
:1062A00067F902BD80B502F077F902BD80B502F052
:1062B00087F902BD80B502F08AF902BD80B502F00F
:1062C0008AF902BD80B502F099F901BD80B502F0EE
:1062D000C7F902BD80B502F099FC02BD1FB56C463E
:1062E000A48C0394089C02946C46A48B01946C4685
:1062F000248B009402F016FD1FBD1FB508AC247856
:1063000002946C46247F0194069C009402F0FEFDEA
:1063100004B010BD80B502F0B7FE02BD80B502F03A
:10632000D5FE02BD18B587B0109C06940FAC24783A
:1063300005946C46248F04946C46A48E03946C469A
:10634000248E02946C46A48D01946C46248D009496
:1063500002F000FF08B010BD1CB56C46247D01940E
:106360006C46247C009402F00FFF16BD1FB5099CFB
:10637000039408AC247802946C46247F01946C4604
:10638000247E009402F015FF04B010BD18B587B04C
:1063900010AC248806946C46A48F05946C46248F18
:1063A00004946C46A48E03946C46248E02946C462E
:1063B000A48D01940AAC2478009402F013FF08B075
:1063C00010BD1FB56C46248C02946C46A48B0194BE
:1063D0006C46248B009402F032FF04B010BD80B5EF
:1063E00002F03EFF02BD80B502F03EFF02BD80B567
:1063F00002F03EFF02BD18B587B010AC24880694A9
:106400006C46A48F05946C46248F04946C46A48E2D
:1064100003946C46248E02946C46A48D01940AACBD
:106420002478009402F028FF08B010BD1CB56C461B
:10643000247D01946C46247C009402F047FF16BD35
:1064400080B502F051FF02BD18B585B00CAC2478C0
:1064500004940BAC247803946C46248D02946C460F
:10646000A48C01946C46248C009402F042FF06B088
:1064700010BD10B588B011AC2488079410AC2488E6
:1064800006946C46A48F05946C46248F04946C4645
:10649000A48E03946C46248E02940BAC2478019451
:1064A0000A9C009402F03AFF08B010BD80B502F0DB
:1064B0007EFF02BD1FB56C46248C02946C46A48BF3
:1064C00001946C46248B009402F075FF04B010BD5B
:1064D0001CB56C46247C009402F07EFF16BD80B58E
:1064E00002F0A6FF02BD80B502F0C8FF02BD80B574
:1064F00002F0D2FF02BD80B502F0D2FF01BD80B52F
:1065000002F0F2FF02BD80B503F066F801BD80B570
:1065100003F060F901BD80B503F0BCF902BD80B5A0
:1065200003F0C0F901BD80B503F0DEF901BD80B50F
:1065300003F0E6F902BD80B503F026FA01BD80B58F
:1065400003F049FA02BD80B503F06EFA01BD80B5D3
:1065500003F073FA02BD80B503F07FFA02BD80B587
:1065600003F07FFA02BD80B503F089FA02BD80B561
:1065700003F08AFA01BD80B503F0B0FA02BD80B520
:1065800003F040FB02BD80B503F076FB02BD80B591
:1065900003F09CFB02BD80B503F0F2FB02BD80B5A9
:1065A00003F0F6FB02BD80B503F0FCFB02BD80B535
:1065B00003F016FC02BD80B503F050FC01BD80B5B0
:1065C00003F0FEFC01BD80B503F016FD02BD80B5F1
:1065D00003F02EFD01BD80B503F042FD02BD80B584
:1065E00003F06CFD01BD80B503F0A2FD01BD80B5D7
:1065F00003F0BCFD01BD80B503F0F2FD02BD80B526
:1066000003F008FE01BD80B503F01AFE01BD80B5A0
:1066100003F02EFE01BD80B503F042FE02BD80B541
:1066200003F060FE01BD80B503F090FE01BD80B5B2
:1066300003F0A6FE01BD80B503F0F0FE02BD80B5FB
:1066400003F022FF01BD80B503F04AFF02BD80B513
:1066500003F06CFF02BD10B504461F20C046207039
:10666000002010BD10B503F0A5FF10BD7CB5044699
:106670000D46012803D0002C01D012207CBD084615
:1066800000F024FA000220430090E81C00F01EFAFB
:106690000002000A0190684603F0A0FF7CBD1CB513
:1066A000012803D0002801D012201CBD6A461070BA
:1066B00000A806220130FFF7B3FC684603F0C6FFCE
:1066C0001CBD10B503F0EEFF10BD7047044910B5B6
:1066D000884201D9022010BD03F0FEFF10BD00006A
:1066E000FF0E000010B50023FFF718FE10BD10B517
:1066F00004F04AF810BD0A4610B50146002004F027
:1067000051F810BD10B501460022412004F04AF8AE
:1067100010BD10B504F094F8002010BD10B5272866
:1067200001D9122010BD04F097F80028FAD10549CC
:1067300001230A681B21890151180A7E1A430A762F
:1067400010BD000084530020F8B515460E460746DC
:1067500025240120C046012800D1FF24272F03D87B
:10676000A64201D8072D01D91220F8BD2A4631468C
:10677000384604F013F90028F7D1054901230A68C7
:106780001B21890151180A7E1A430A76F8BD0000C0
:106790008453002010B504F03BFA002808D10549C5
:1067A0000A681B21890151180A7E520852000A7694
:1067B00010BD000084530020014901800020704773
:1067C0003109000030483149086001203049087023
:1067D00000207047FFB583B00F9F109E119D129847
:1067E000FFF7EAFF002468468460446001A8009037
:1067F00002AB9B1C01AA921C02A9C01CFFF748FB1C
:1068000003200399087002200499087005990C7000
:1068100038A020490978405C069908700C980480DB
:106820000F206946098901400D9A117069468988CF
:106830000906090F0E9A1170694689880840387058
:1068400068468088C00B307028881F21014329804A
:10685000002007B0F0BD7CB51E000F4D00242C6059
:10686000FFF772FF01000ED107E0A0B2296888424D
:1068700003D00A4804F0FAF92C682868B042F4D32F
:106880006846FFF787FF76BD010101013000002057
:10689000E04800203853002024000020FD7F000045
:1068A00080B500F0CFFF02BD80B500F0FEFF02BD55
:1068B00080B501F023F802BD80B5002802D0012880
:1068C00004D006E001F02EF8002002BD01F031F8FE
:1068D000FAE7122002BDF8B505000C0017001E00F3
:1068E00001F071F828603100380001F06FF8206085
:1068F0000020F2BD0102010010B504F0C9F910BD7D
:1069000010B504F053FA10BD10B504F089FA10BDAB
:1069100004490922096812028918096B0989016072
:10692000002070478453002084460870000A487095
:10693000000A8870000AC87060467047F0B5354C90
:106940000646206887B02030807F0D46002802D0A0
:106950000C2007B0F0BD282E01D2022D01D9122043
:10696000F7E704F07FFA0028F2D12B4872000121EA
:10697000101889030004012D02D0022D02D002E07C
:10698000401800E0401A01014302C90E5B0FC90024
:10699000401C1943030B9C46030106092068093378
:1069A0002030047F9E46A5010623447F1D43E3005B
:1069B0002B43312564002C43012585770325684648
:1069C0000570042747708270C370022202711C2375
:1069D000437173238371C5712423037244723F236F
:1069E0008372C2722323037345738273C3730722B6
:1069F00002740522427428228274C17463460375AE
:106A00004675734683750021C17504F03DFA002078
:106A10009FE7000084530020620900000EB50F4874
:106A200001682031887F002816D000208877042252
:106A300069460A7023224A7088700E22CA70087153
:106A400002224A712B228A710822CA710872684692
:106A500004F01AFA00200EBD0C200EBD8453002055
:106A6000F0B5124B09241A6824021219166B104D46
:106A700000221C68A034247B944213D95824544328
:106A8000A719BC786407640F845403D07C8957002D
:106A9000CC5301E054000D53521CD2B2082AE8D363
:106AA0000020F0BD00248454F4E70000845300204B
:106AB000FFFF0000024909686831C8800020704764
:106AC0008453002010B504F0F5F910BDC378827826
:106AD000417800781B021A4309021204084310434C
:106AE0007047704701B50548054B006804226946A8
:106AF000C018FFF795FA002008BD0000845300205D
:106B00000407000010B504F001FA040002D10120CE
:106B100004F012FA204610BDFFB587B0109D159EF7
:106B2000169C01930295009407A807C81F46334698
:106B300004F05AFA00280ED11398149903AA069467
:106B400043C21198129901900095029107A807C8B5
:106B50003B4604F077FA0BB0F0BDFFB587B0109D4F
:106B6000159E169C01930295009407A807C81F461E
:106B7000334604F039FA00280ED11398149903AA69
:106B8000069443C21198129901900095029107A8AA
:106B900007C83B4604F080FA0BB0F0BD7CB5069DFB
:106BA000079C012903D0042901D042207CBD012A81
:106BB00001D0002AF9D10095019404F089FA7CBD36
:106BC00010B5042801D9422010BD04F099FA10BD77
:106BD000FFB583B003980C9D1E4614460F4600284F
:106BE00004D0012802D0422007B0F0BD002F01D010
:106BF000012FF8D1E81F0A28F5D20D981028F2D8F5
:106C0000A842F0D30E98002801D00128EBD11449F6
:106C10000F988842E7D81098002801D00128E2D1C7
:106C20000120C046012804D02046304305D0112061
:106C3000DAE7022CD7D8012ED5D86846039901701F
:106C400047708472C67285700D99C1700E99017279
:106C50000F98019068461099417204F06FFAC3E7EB
:106C60003F420F0010B5002903D0012901D0422076
:106C700010BD04F077FA10BD044A10B5914201D955
:106C8000422010BD04F08CFA10BD00003F420F00FE
:106C900010B5012903D0022901D0422010BD04F013
:106CA00097FA10BD7CB5069D079C002805D0860785
:106CB00005D1460703D4060701D442207CBD002934
:106CC00003D0012901D00229F7D10095019404F0E5
:106CD00095FA7CBD10B5022803D0032801D04220CC
:106CE00010BD04F089FB10BD10B5002B03D0032BA1
:106CF00001D0422010BD04F095FB10BD10B504F08A
:106D0000A9FB10BD10B51F2801D9422010BD04F009
:106D1000EFFB10BD10B5044601F04AF9082803D076
:106D2000204604F009F910BD462010BD10B504F04E
:106D300046FC002010BD704701B506486946026850
:106D40003720400109781018817269464978C1726C
:106D5000002008BD8453002010B504F053FC10BD82
:106D600010B504F095FC10BD10B504F095FC10BDF5
:106D700010B504F0A1FC10BD10B504F0B2FC10BDBC
:106D8000F0B585B08C46864600250A9F0C9E0B996F
:106D90000D982C46022A04D0032A02D0422005B0C6
:106DA000F0BD002F00D00C46002E00D005466146F5
:106DB0007046009702960395019404F0ABFCEEE751
:106DC00008B500226B461A700346FA22684604F0A2
:106DD000C5FC08BD00B595B00B46012804D00028BD
:106DE00002D0422015B000BD01466A46184604F0A4
:106DF000FFFCF7E738B5049C022801D9422038BDD2
:106E0000009404F057FD38BD7CB5079D069C012811
:106E100007D8022B05D8102C03D8012903D000294C
:106E200001D042207CBD0195009404F065FD7CBD3D
:106E300010B5002803D0012801D0422010BD04F075
:106E4000AFFD10BD10B504F0E5FD10BD70B586B006
:106E500014461D460A4603466946881C0A9E04F0ED
:106E6000A3FE002804D1012C04D0022C02D0422021
:106E700006B070BD23462A466946304604F0A8FE97
:106E8000F6E7F0B587B0064614460D4602A8811E07
:106E90000D9F0C9A04F088FE002807D168460680F2
:106EA000458084806946384604F042FF07B0F0BD53
:106EB000F0B587B01C460B46054600A9023101A873
:106EC0000C9F0D9E04F070FE00280ED168460580D0
:106ED00084828775C6750E9901760F99417610994F
:106EE00081766946119804F0CFFF07B0F0BDF0B588
:106EF0008BB09C460C4605461346624601A806A97F
